:020000040800F2
:10000000D08100202D030008434A00085740000813
:10001000414A0008370A0008497000080000000043
:100020000000000000000000000000006D02000859
:10003000E90B000800000000C9020008E94C0008B4
:100040004703000847030008470300084703000868
:100050004703000847030008470300084703000858
:10006000470300084703000847030008E50A0008A3
:1000700047030008F10A000847030008FD0A0008CA
:100080004703000847030008470300084703000828
:10009000390A0008450A000847030008470300081A
:1000A0004703000847030008470300084703000808
:1000B00047030008470300084703000847030008F8
:1000C00047030008470300084703000847030008E8
:1000D00047030008C9540008470300084703000805
:1000E000EB0B00084703000847030008470300081C
:1000F00047030008C54D000847030008090B000826
:1001000047030008470300084703000847030008A7
:10011000A5500008B1500008B94D00084703000879
:1001200047030008150B0008210B000847030008CF
:10013000470300080000000000000000470300081B
:10014000510A00085D0A000847030008454A0008F4
:10015000470300082D0B0008390B0008D554000890
:100160004703000847030008470300084703000847
:1001700047030008470300080000000000000000DB
:10018000470300084703000800F002F800F05EF89B
:100190000AA090E8000C82448344AAF10107DA45E2
:1001A00001D100F053F8AFF2090EBAE80F0013F0D6
:1001B000010F18BFFB1A43F0010318475C9D0000B4
:1001C0007C9D00000A444FF0000C10F8013B13F036
:1001D000070408BF10F8014B1D1108BF10F8015BA0
:1001E000641E05D010F8016B641E01F8016BF9D193
:1001F00013F0080F1EBF10F8014BAD1C0C1B09D1EA
:100200006D1E58BF01F801CBFAD505E014F8016B5B
:1002100001F8016B6D1EF9D59142D6D370470000ED
:100220000023002400250026103A28BF78C1FBD8FF
:10023000520728BF30C148BF0B6070471FB509F097
:1002400014FD00F0ABF91FBD10B510BD00F0CCF9E6
:100250001146FFF7F3FF08F04DF800F0EAF903B498
:10026000FFF7F2FF03BC00F0EDF900002C4B19681A
:100270000868B0E8F04F80F30988BFF36F8F4FF044
:10028000000080F3118870470000000008480068F3
:10029000006880F308884FF0000080F3148862B68D
:1002A00061B6BFF34F8FBFF36F8F00DF00BF00BF9A
:1002B00008ED00E0DFF80C00016841F47001016016
:1002C000704700BF88ED00E0EFF30980BFF36F8F48
:1002D000134B1A681EF0100F08BF20ED108A20E99A
:1002E000F04F106009B44FF0500080F31188BFF355
:1002F0004F8FBFF36F8F08F0EFFC4FF0000080F3DB
:10030000118809BC19680868B0E8F04F1EF0100F9A
:1003100008BFB0EC108A80F30988BFF36F8F704775
:10032000E4010020EFF30580704700000948804792
:1003300009480047FEE7FEE7FEE7FEE7FEE7FEE7C7
:10034000FEE7FEE7FEE7FEE704480549054A064BDF
:1003500070470000A94D000889010008D07B0020EB
:10036000D0810020D07D0020D07D002053EA020CF7
:1003700000F069802DE9F04B4FF00006002B1FBF05
:10038000B3FA83F503FA05F424FA05F65E4012BFCA
:100390001643B2FA82F502FA05F4C5F120051EBF34
:1003A00022FA05FC44EA0C04203556EA044C4FEAD4
:1003B000144418BF641C4FF000084FF0000990422D
:1003C00071EB030C39D3002919BFB1FA81F701FA97
:1003D00007F6B0FA80F700FA07F6C7F120071EBF4C
:1003E00020FA07FC46EA0C062037B6FBF4FCA7EB24
:1003F0000507103F07F01F0BCBF120060CFA0BFB93
:100400002CFA06F644BFB3460026202FA4BF5E4652
:100410004FF0000B5BEA060C08BF4FF0010B19EB25
:100420000B09ABFB027C48EB0608C01B06FB02CCA9
:100430000BFB03CC71EB0C01C1E70B4602464146B6
:100440004846BDE8F08B13B54FF000004FF00001B7
:10045000AFF30080BDE81C407047032A40F23080B3
:1004600010F0030C00F0158011F8013BBCF1020FF5
:10047000624498BF11F801CB00F8013B38BF11F876
:10048000013BA2F1040298BF00F801CB38BF00F88D
:10049000013B11F0030300F02580083AC0F008800A
:1004A00051F8043B083A51F804CBA0E80810F5E7EE
:1004B000121D5CBF51F8043B40F8043BAFF30080D1
:1004C000D20724BF11F8013B11F801CB48BF11F846
:1004D000012B24BF00F8013B00F801CB48BF00F816
:1004E000012B704710B5203AC0F00B80B1E81850CE
:1004F000203AA0E81850B1E81850A0E81850BFF40E
:10050000F5AF5FEA027C24BFB1E81850A0E81850AC
:1005100044BF18C918C0BDE810405FEA827C24BF00
:1005200051F8043B40F8043B08BF7047D20728BF8E
:1005300031F8023B48BF11F8012B28BF20F8023BDD
:1005400048BF00F8012B70474FF0000200B513467A
:1005500094469646203922BFA0E80C50A0E80C50E3
:10056000B1F12001BFF4F7AF090728BFA0E80C5094
:1005700048BF0CC05DF804EB890028BF40F8042B8D
:1005800008BF704748BF20F8022B11F0804F18BFFA
:1005900000F8012B704770477047704770B5064CE4
:1005A0007C44064D7D4403E0206820448047241DA0
:1005B000AC42F9D170BD00009499000098990000F8
:1005C00010B500F00DF8006810BD10B5044600F03D
:1005D00007F8046010BD0000004870476C7B0020E5
:1005E000004870476C7B00207546FFF7F5FFAE466C
:1005F00005006946534620F00700854618B020B52F
:10060000FFF7A2FEBDE820404FF000064FF00007C4
:100610004FF000084FF0000B21F00701AC46ACE8AA
:10062000C009ACE8C009ACE8C009ACE8C0098D4617
:10063000704710B50446AFF300802046BDE8104077
:10064000FFF70DBE01491820ABBEFEE726000200F1
:1006500070470000464910B54A6822F440324A60AB
:100660004A6843681A434A6001684A6822F4807203
:100670004A6001684A68036942EA03224A600168E5
:100680004A6822F040724A6001684A6883681A43E7
:100690004A6001688A6822F400628A6001688A6898
:1006A000C3681A438A60816A6FF07062D142016840
:1006B0008A6822F070628A6001688A680CD0836A56
:1006C0001A438A6001688A6822F040528A60016891
:1006D0008A68C36A1A4301E022F040528A600168C6
:1006E0008A6822F002028A6001688A68037E42EA10
:1006F00043028A6090F82010002901684A680FD0F0
:1007000042F400624A6001684A6822F460424A602A
:1007100001684A68174C436A04EB43331A4301E00B
:1007200022F400624A600168CA6A22F47002CA6256
:100730000168CA6A838B104C04EB03531A43CA62E4
:1007400001688A6822F400728A6001688A6890F8F9
:10075000303042EA43228A6001688A6822F480626B
:100760008A6001688A68406942EA8020886010BD1A
:100770000023014000E0FFFF0000F0FF1B4801786C
:1007800001292DD000F10C0170EE600A91ED011AE3
:1007900090ED010A00EE810A80ED010A91ED031A45
:1007A000B4EEC01AF1EE10FA01D280ED011AD0EDCC
:1007B000011AB1EE410AB4EEE10AF1EE10FA01DDE0
:1007C00080ED011A91ED001A90ED010A084801EE42
:1007D000200AD1ED020A90ED001A00EE810A70475E
:1007E0009FED040A80ED010A70470000B801002067
:1007F0004C0200200000000001221021014801F0FD
:100800005AB900000008024000221021014801F0FE
:1008100052B9000000080240704700000122202168
:10082000014801F048B900000008024000222021E0
:10083000014801F040B9000000080240704710B5BF
:10084000044602E0012001F011F8641EA4B2F9D2BE
:1008500010BD012001F00AB810B5FFF7DDFFFFF76A
:10086000EDFF07F05FFA044607F0E4FA204310BDFD
:100870002DE9FC410746002016460D4600900190E8
:10088000FFF7C2FF922000F0BDF806226946122051
:1008900000F09AF8FFF7B0FF9DF801009DF80010F6
:1008A000000200B2084300EE100A464CB8EEC00A3F
:1008B000D4ED000A20EE200A85ED000A9DF8030021
:1008C0009DF80210000200B2084300EE100AD4EDB9
:1008D000000AB8EEC00A20EE200A85ED010A9DF854
:1008E00005009DF80410000200B2084300EE100A53
:1008F000B8EEC00A20EE200A85ED020AFFF796FF47
:1009000008226946002000F05FF8FFF787FF9DF896
:1009100000000F2830D19DF803009DF8021000025E
:1009200000B2084300EE100AD4ED010AB8EEC00A86
:1009300020EE200A87ED000A9DF805009DF80410BE
:10094000000200B2084300EE100AD4ED010AB8EE2E
:10095000C00A20EE200A87ED010A9DF807009DF8E5
:100960000610000200B2084300EE100AB8EEC00AFA
:1009700020EE200A87ED020AFFF746FFA22000F0D2
:1009800041F802226946222000F01EF8FFF734FFEA
:100990009DF800009DF80110C00040EA5110B0F52C
:1009A000806F01DBA0F5006000EE100AB4EE001AC3
:1009B000F8EEC00AB3EE070A00EE810A86ED000ADF
:1009C000BDE8FC813401002070B514460D4640F0AE
:1009D000800000F017F806E0552000F013F8641EC0
:1009E00005F8010BE4B2002CF6D170BD10B50C4631
:1009F00040F0800000F006F8552000F003F8207069
:100A000010BD000001B582B04FF47A700090012350
:100A100001AA02A9024802F0B5F99DF804000EBD32
:100A20007805002010B50C46FFF7ECFF2046BDE826
:100A30001040FFF7E7BFFEE7014800F0EABA000008
:100A400028050020014800F0E4BA00002805002035
:100A5000014800F0DEBA000050050020014800F017
:100A6000D8BA0000500500200020704700207047D1
:100A700010B500220449054804F012FF0449034858
:100A800004F001FF002010BDAC200020D00B00209E
:100A9000AC1800202DE9F0410E4A00230E4F566895
:100AA0000BE015686C1CC4F30A04B44204D010F8BF
:100AB00003C007F805C014605B1C0C689C42F0D8AA
:100AC0000146064804F0DFFE044804F0B5FE0020AD
:100AD000BDE8F08178000020AC100020D00B002091
:100AE00000207047014800F04FBD0000A809002019
:100AF000014800F049BD0000E8080020014800F06E
:100B000043BD000088080020014800F03DBD000002
:100B100048090020014800F037BD0000280B0020E4
:100B2000014800F031BD0000680A0020014800F0D3
:100B30002BBD0000C80A0020014800F025BD0000C0
:100B4000080A002001681823CAB2103AB2FBF3F277
:100B5000054B6FF30901032A9B5CC36500D9091D8E
:100B600081650846704700000C9D000810B50146DD
:100B700000208B698A6A4FF0C07453B1B3F5005FEF
:100B800015D072B1012A0CD0022A0AD0032A09D149
:100B900004E01AB1012A06D0022A03D1C96AC901A8
:100BA00000D5012010BDC96AA142FAD010BD002AAB
:100BB000F7D0012AF2D0022AF3D0032AF3D010BDD5
:100BC00030B50468256825F48025256004686360D5
:100BD0008368402B036803D099600068C26030BD11
:100BE0009A600068C16030BD70474FF4006000F04B
:100BF00051BE72B6FEE7000078B50024009490F86C
:100C00003C20012A19D0012280F83C200A680723E1
:100C10000568092A13D9EE680A3A02EB42029340AA
:100C20009E43EE600B788A680A3B03EB43039A40CD
:100C30000368DD682A43DA6010E0022078BD2E697F
:100C400002EB420293409E432E610B788A6803EBCD
:100C500043039A4003681D692A431A614A681F23A7
:100C6000072A13D205686E6B521E02EB8202934074
:100C70009E436E630B790A885B1E92B203EB83037B
:100C80009A4003685D6B2A435A6327E005680D2A82
:100C900012D22E6BD21F02EB820293409E432E6330
:100CA0000B790A88DB1F92B203EB83039A40036837
:100CB0001D6B2A431A6311E0EE6A0D3A02EB8202C1
:100CC00093409E43EE620B790A880D3B92B203EB90
:100CD00083039A400368DD6A2A43DA62164B05688B
:100CE000144A9D4206D10D68122D03D1556845F472
:100CF0008005556005689D4218D10B68102B01D006
:100D0000112B13D1536843F4000353600968102971
:100D10000CD10A490A4A0968B1FBF2F101EB8101E1
:100D2000490000E0491E00910029FBD180F83C40B9
:100D3000002078BD0023014000200140A0000020D9
:100D400040420F0070B504004FF0000503D0206C46
:100D5000002610B107E0012070BD204600F01CF80D
:100D6000666484F83C60206CC00610D4206C20F4CB
:100D7000885040F0020020642046FFF76BFC666458
:100D8000206C20F0020040F00100206400E001250A
:100D900084F83C60284670BD10B586B00446142126
:100DA0006846FFF7D1FB1149206888421CD11048E2
:100DB0000021026842F480720260006800F48070D2
:100DC00005900B481438026842F001020260006886
:100DD00000F001000590102000900320CDE90101F2
:100DE0006946044800F062FD06B010BD00200140D5
:100DF000443802400000024090F82020012A07D029
:100E0000022A05D0416A41F48021416201207047E5
:100E1000006842690A4342610020704710B590F8AB
:100E20002020012A07D0022A05D0416A41F48021FE
:100E30004162012010BD3B48D0F8002242F001027F
:100E4000C0F80022D0F8002222F47C52C0F8002220
:100E5000D0F800224B6A42EA0322C0F800220A7D41
:100E600002F01F0301229A40D0F81C329343C0F8CD
:100E70001C32CB69B3B9D0F80C329343C0F80C32B2
:100E80008C894B6864F31F434C6900EBC404C4F8BD
:100E900040320C890B6864F31F434C6900EBC404B7
:100EA000C4F84432CB69012B16D1D0F80C3213436D
:100EB000C0F80C320C884B6864F31F434C6900EB9C
:100EC000C404C4F840320C89CB6864F31F434C69F6
:100ED00000EBC404C4F844328B69002BD0F8043210
:100EE0000ED01343C0F804320B69002BD0F8143233
:100EF00008D01343C0F81432096A012904D008E06D
:100F00009343EFE79343F5E7D0F81C121143C0F881
:100F10001C12D0F8001221F00101C0F800120020CC
:100F200010BD000000640040704730B590F82040CC
:100F3000012C05D0022C03D0416A41F480215DE0F0
:100F40000468002955D02469A40754D04FF4D874FC
:100F5000056804EB01142D5915F00405956005682A
:100F60002D594ED0ED08556005682C5904F0020447
:100F7000D4604FF4DA74056804EB01142D5905F0C0
:100F80000F05156105682D59C5F30725956105689D
:100F90002C59240C54614FF4DC72046802EB0112EA
:100FA000A4581C700468A458240A5C700468A458EF
:100FB000240C9C700468A258120EDA704FF4DE7292
:100FC000046802EB0112A4581C710468A458240A96
:100FD0005C710468A458240C9C710468A258120E19
:100FE000DA71006881B1016941F0200101610020DE
:100FF00030BDE468A8E7416A41F400114162012074
:1010000030BD6D0D1560AFE7C16841F02001C160D2
:10101000EDE72DE9F05F0546006800244669D0F849
:1010200004908768D0F80CB0D0F810A0D0F81880E1
:10103000F10748D0F90714D001218160B80703D522
:10104000284600F040FA0CE0780702D54FF400641F
:1010500007E0380702D54FF4805402E0284600F03C
:1010600031FAF80516D529684FF480708860B80504
:1010700003D5284600F029FA0CE0780502D544F49F
:10108000005407E0380502D544F4804402E02846C5
:1010900000F01AFAF80316D529684FF480308860FA
:1010A000B80303D5284600F012FA0CE0780302D505
:1010B00044F4004407E0380302D544F4803402E0ED
:1010C000284600F003FA300707D55FEACB6004D565
:1010D0002968102044F40074C86070074FF00807B6
:1010E00007D55FEA0B7004D52868C760284600F072
:1010F000ADF9B00706D52868C068800702D0284639
:1011000000F0A6F9700607D55FEACA6004D5296821
:10111000102044F480640861B00607D55FEA0A70C5
:1011200004D528680761284600F09CF9F00606D52A
:1011300028680069800702D0284600F094F9B003BF
:1011400008D55FEAC96005D529681020486028469F
:1011500000F08AF9F00307D55FEA097004D5286822
:101160004760284600F0B4F9300446D55FEA49707C
:1011700040D5F00504D55FEAC87001D044F0010401
:10118000B00504D55FEA887001D544F0020470050B
:1011900004D55FEA487001D544F00404300529D530
:1011A00018F0700F26D008F07000402815D006DC2B
:1011B000102809D020280AD0302816D10AE050285B
:1011C0000ED0602811D10EE044F008040DE044F088
:1011D00010040AE044F0200407E044F0400404E076
:1011E00044F0800401E044F480742868816921F0AF
:1011F00070018161296804204860002C05D0686A6C
:10120000204368622846FFF78FFEBDE8F09F70B567
:10121000040003D094F8200010B104E0012070BD58
:10122000204600F081F82068016841F0010101606A
:1012300000F046FC0546052604E000F041FC401B9A
:101240000A2811D820684068C007F6D020680168D5
:1012500021F00201016000F033FC05460BE000F0D4
:101260002FFC401B0A2806D9606A40F400306062F7
:1012700084F82060D2E7206840688007EFD4207EA1
:101280000128206801683DD021F080010160607E66
:1012900001282068016838D021F040010160A07E5B
:1012A00001282068016833D021F020010160E07E30
:1012B0000128206801682ED041F010010160207FD4
:1012C00001282068016829D021F008010160607FB1
:1012D00001282068016824D021F004010160D4E9CC
:1012E00002010843D4E90412114308436168491E0E
:1012F00008432168C86100206062012084F8200052
:10130000002070BD41F08001C0E741F04001C5E719
:1013100041F02001CAE721F01001CFE741F00801B8
:10132000D4E741F00401D9E72DE9F04387B0044642
:1013300014216846FFF708F9404B4148DFF8F88070
:101340001968D4F800C03E4A022503260927DFF8B1
:10135000F49010300024491CC4452CD11960012997
:1013600007D1016841F000710160006800F0007071
:101370000590106840F002001060106802AB00F0A9
:10138000020005904FF44070CDE9000583E8D000DD
:101390006946484600F08AFA00220621142000F02F
:1013A0002DFC142000F01CFC00220621152000F06A
:1013B00025FC15203BE0DFF89080C44539D1D0F8FA
:1013C00000C04CF0806CC0F800C0D0F800C001290B
:1013D0000CF0806CCDF814C0196007D1016841F0A1
:1013E00000710160006800F000700590106840F026
:1013F00002001060106802AB00F0020005904FF48C
:101400004050CDE9000583E8D0006946484600F029
:101410004DFA00220621402000F0F0FB402000F0B1
:10142000DFFB00220621412000F0E8FB412000F014
:10143000D7FB07B0BDE8F083006400402400002023
:10144000303802400004024000680040704700004D
:101450000349884201D106F089BE06F0A1BE000012
:1014600028050020704770477047000070B504469B
:1014700090F82000012804D0606A40F400206062E7
:1014800018E0022084F820002068016821F00101A2
:10149000016000F015FB05460EE000BF00F010FBF8
:1014A000401B0A2808D9606A40F4003060620520B9
:1014B00084F82000012070BD20684068C007EDD18D
:1014C000606270BD704770477047704770477047E3
:1014D00070472DE9F0410446876D00F0F1FA0646A9
:1014E00094F835000025022806D08020606584F835
:1014F00034500120BDE8F0812068016821F0160118
:1015000001602068416921F080014161206C08B9C7
:10151000A06C20B12068016821F0080101602068FA
:10152000016821F0010101600CE000F0C9FA801BA4
:10153000052807D920206065032084F8350084F849
:101540003450D7E720680068C007EED194F85C10EB
:101550003F208840B860012084F8350084F834507A
:101560000020C7E790F83510022903D0802141659B
:1015700001207047052180F835100068016821F0CE
:1015800001010160002070472DE9F84304464FF047
:101590000009CDF8009063484FF41651A56D00681E
:1015A000B0FBF1F72E6894F85C10082000FA01F106
:1015B00031420FD021680A6852070BD50A6822F021
:1015C00004020A6094F85C108840A860606D40F0E6
:1015D0000100606594F85C104FF0010808FA01F012
:1015E000304208D021684969090604D5A860606DB9
:1015F00040F00200606594F85C100420884030429E
:1016000008D021680968890704D5A860606D40F09A
:101610000400606594F85C1010208840304218D0B7
:1016200021680968090714D5A86020680168490382
:1016300004D50068000308D5A16C07E00168C9055E
:1016400003D4016821F008010160216C09B1204632
:10165000884794F85C1020208840304231D02168BF
:101660000968C9062DD5A86094F8350005282068BA
:10167000016806D0490347D5006800031DD4616C9A
:101680001CE021F0160101602068416921F0800111
:101690004161206C08B9A06C20B12068016821F07C
:1016A0000801016094F85C103F208840A86084F82D
:1016B000358084F83490216D1FE0E16B09B120463C
:1016C0008847606D00282BD0606DC00714D00520BE
:1016D00084F835002068016821F00101016000985C
:1016E000401C0090B84203D820680068C007F6D1BB
:1016F00084F8358084F83490E16C002910D001B072
:101700002046BDE8F04308470168C905D5D4016803
:1017100021F01001016084F8358084F83490CCE722
:10172000BDE8F883A00000202DE9F041044600F058
:10173000C7F906465CB1022084F83500002584F81C
:1017400034502068016821F0010101600DE00120A2
:10175000BDE8F08100F0B4F9801B052805D92020F0
:101760006065032084F83500F2E720680068C00750
:10177000F0D12268116820480140D4E901031843E0
:10178000D4E903363343184363691843A369184304
:10179000E3691843236A18430843616A042903D1A3
:1017A000D4E90B1319430843106020684069666A46
:1017B00020F0070130460E43012704280CD1A06A0F
:1017C0000643E06A40B12046FFF7D0F920B140203F
:1017D000606584F83570BAE7206846612046FFF7F7
:1017E000B1F994F85C203F2191408160656584F8EF
:1017F00035700020ACE700003F8010F02DE9F0418B
:101800000446866D90F83400002501280DD0012093
:1018100084F8340094F835700020012F07D084F844
:10182000340002252846BDE8F0810220FBE70227AC
:1018300084F8357060652046FFF7C2F994F85C10B3
:101840003F208840B0602068016841F016010160C7
:10185000206C20B12068016841F008010160206817
:10186000016841F001010160DCE7000070B5044649
:1018700000F026F90546601C02D0044800780444B4
:1018800000F01EF9401BA042FAD370BD9400002066
:1018900070470000044910B50A68024202D008608F
:1018A000FFF7F6FF10BD0000143C01402DE9F84F92
:1018B000DFF8BCA10022012503264FF00F090AF131
:1018C000040BAAF1040E00BF0B6805FA02F42340D2
:1018D000A34270D10F7907F00307012F01D0022F27
:1018E00016D187684FEA420806FA08FC27EA0C0777
:1018F000D1F80CC00CFA08FC4CEA070CC0F808C080
:101900004768A7430C79C4F3001494403C434460F7
:101910000C79E443A4070AD0C4684FEA420C06FAE3
:101920000CF7BC438F6807FA0CF72743C7600C79A4
:1019300004F00304022C12D1D40800EB840CDCF870
:1019400020405707FF0E09FA07F824EA0804D1F8E7
:10195000108008FA07F848EA0408CCF820800468E8
:101960004FEA420C06FA0CF7BC430F7907F0030765
:1019700007FA0CF7274307604C6814F4403F70D017
:101980003C4C276847F480472760246822F003070F
:1019900004F480440094384C07EB040CDCF808484D
:1019A00097074FEA177809FA08F7BC43334FB84254
:1019B00002D1002724E054E0314FB84201D1012781
:1019C0001EE0304FB84201D1022719E02E4FB84235
:1019D00001D1032714E02D4FB84201D104270FE0B5
:1019E0002B4FB84201D105270AE02A4FB84201D156
:1019F000062705E0284FB84201D1072700E0082755
:101A000007FA08F72743CCF80878DAF80040574679
:101A1000D1F804C09C435FEACC2C00D51C433C6049
:101A2000DBF800405F46D1F804C09C435FEA8C2C91
:101A300000D51C433C60DEF800407746D1F804C076
:101A40009C435FEA8C3C00D51C433C60084F083F38
:101A50003C68D1F804C09C435FEACC3C00D51C43F1
:101A60003C60521C102AFFF42FAFBDE8F88F000035
:101A7000083C014044380240003001400000024070
:101A80000004024000080240000C02400010024026
:101A90000014024000180240001C02400069084087
:101AA00000D001207047426921EA02030A4043EA5C
:101AB0000241816170470AB1816170470904FBE707
:101AC0000148806870470000940000200248816847
:101AD0000278114481607047940000200B4810B5D3
:101AE000016841F400710160016841F480610160A6
:101AF000016841F480710160032000F09FF80F201D
:101B000000F006F800F050F8002010BD003C024044
:101B100030B505461F4887B00024016841F4807144
:101B20000160006806A900F48070009001A800F030
:101B30006BFE0498A8B100F08DFE40001649174ACC
:101B4000B0FBF1F11648491E026040F2E732C0E9ED
:101B50000324C0E90114846101F050FA040003D0A9
:101B600015E000F077FEE9E70D4801F0B9FA04004E
:101B70000DD12D2000F034F8102D07D20022294677
:101B80002D2000F03BF80748056000E0012407B075
:101B9000204630BD4038024040420F000020004047
:101BA000880B0020980000200C4882B0016841F4A6
:101BB00080410160006800F4804000900748001FE9
:101BC000016841F0805101600068002200F08050FF
:101BD00000900F21901E02B000F010B8443802406F
:101BE000002809DB00F01F0201219140400980001C
:101BF00000F1E020C0F8001170470000F0B40E4B77
:101C00001B680C46C3F30223C3F10705042D00D95A
:101C10000425191D072901D2002300E0DB1E01263F
:101C200006FA05F1491E214099409E40761E164055
:101C30003143F0BC05F08ABA0CED00E0064900F033
:101C4000070208684FF6FF03184040EA0220034AE3
:101C500010430860704700000CED00E00000FA053A
:101C600070470068416200207047F0B50368586A09
:101C700039B19C6A4FF4827600EB144400204D1E6B
:101C80000AE040EA024098620FE006EB8007DF5965
:101C9000401C04EB1744C0B2A842F6D344EA024009
:101CA0004FF4807202EB810158500020F0BDD0F853
:101CB000080504F0CBB801EBC10200EB8202D0F8BA
:101CC0000805D26C04F020B801EBC10200EB8202DF
:101CD000D0F80805D2F88C2204F071B8D0F80805C5
:101CE00004F0B6B80A0601F00F0101EBC10100EBE8
:101CF000810101D53C3101E001F51F71006804F05C
:101D0000EBBF70B504460B0601F00F0000EBC001FD
:101D100004EB81014FF001024FF0000503D581F87B
:101D20003D203C3103E081F87D5201F51F710870C0
:101D300094F8BC04012808D084F8BC24206804F07E
:101D400085FC84F8BC54002070BD022070BD70B5C5
:101D5000044601F00F006268904201D9012070BD75
:101D60000B0601F00F0101EBC10104EB81014FF003
:101D700001024FF0000503D581F83D203C3103E01E
:101D800081F87D5201F51F718D70087094F8BC04C4
:101D9000012808D084F8BC24206804F053FE84F89D
:101DA000BC54002070BD022070BD01F00F0101EB9A
:101DB000C10100EB8100D0F89C0270472DE9F04191
:101DC00004460F0601F00F0000EBC00104EB810197
:101DD0004FF001064FF0000503D581F83D603C311E
:101DE00003E081F87D5201F51F710870CA600B7124
:101DF0004A7802B10881022B00D14D7194F8BC04DD
:101E0000012809D084F8BC64206804F077FB2846D8
:101E100084F8BC54BDE8F0810220FBE770B50C46A5
:101E200001F00F0505EBC50100EB8101C1F894320B
:101E3000C1F88C220023C1F89C3281F87D3281F8F0
:101E40007C52036901F51F71012B00D14A61220701
:101E5000027C006803D004F04DFE002070BD04F049
:101E600037FDFAE770B504460D4601F00F006168D2
:101E7000884201D9012070BD29064FF000064FF0BD
:101E8000010207D500EBC00104EB810181F83D2080
:101E90003C3107E005EBC50104EB810181F87D626F
:101EA00001F51F718A70087094F8BC04012807D0EE
:101EB00084F8BC24206804F0F1FD280702D007E074
:101EC000022070BD217C04F2C442206804F08EFD23
:101ED00084F8BC64002070BD70B50C4601F00F059D
:101EE00005EBC50100EB81014B65CA640023CB659E
:101EF000012381F83D3001F83C5F0369012B00D1DB
:101F00004A612207027C006803D004F0F3FD002040
:101F100070BD04F0DDFCFAE72DE9FC5F05680446BE
:101F2000284604F07AFF00287DD1206804F0A1FF44
:101F3000002878D0D5F80808C0F30D20C4F8FC04B8
:101F4000206804F096FF800704D52068416901F0FD
:101F500002014161206804F08CFFC10604F2C44014
:101F6000009034D52068816921F0100181612F6AC9
:101F700007F00F0000EBC00004EB8006C7F34340FE
:101F800006F51F76022802D0062811D01AE047F67F
:101F9000F070074216D0C7F30A1217462846316977
:101FA00004F06BFF306938443061306A384408E02F
:101FB00008222846009904F060FF306AC7F30A112E
:101FC000084430622068816941F010018161206815
:101FD00004F04FFF00034FF0080B4FF0000A4FF0E2
:101FE00001097CD50026206804F022FF074674E032
:101FF000F80770D0F1B2206804F033FF8046C007C4
:1020000007D005EB4611C1F8089B3146204602F087
:102010001FFD5FEA087024D505EB4611C1F808BB27
:102020002068016C00E025E200EB46100191D0F839
:10203000082BFC4B994205D9110403D54FF40041FC
:10204000C0F8081B204600F005FBF64901988842BD
:1020500007D92069012804D120680121009A04F0E1
:10206000C5FC5FEAC86004D505EB46111020C1F835
:10207000080B5FEA88701DD56869000605D5D5F89C
:10208000040840F48061C5F8041806EBC60004EBB0
:10209000800090F87F1200F51F70012905D180F8AB
:1020A00003A0F1B2204600F0EBF905EB4611022047
:1020B000C1F8080B5FEA886004D505EB46102021C3
:1020C000C0F8081B5FEA884005D505EB46104FF4C1
:1020D0000051C0F8081B7F08761C002F88D12068AB
:1020E00004F0C7FE40036FD5206804F09AFE07464F
:1020F000002667E0F80763D0F1B2206804F09FFE85
:102100008046C00723D006F00F0209FA02F0D5F886
:1021100034288243C5F8342805EB4610C0F80899E6
:10212000206901280FD106EBC60004EB8000D0E93E
:1021300012211144C16436B9606D20B920680121B3
:10214000009A04F053FCF1B22046FFF7B4FD5FEAB9
:10215000087003D505EB4611C1F808B95FEAC860FD
:1021600004D505EB46111020C1F808095FEA486064
:1021700004D505EB46104021C0F808195FEA8870C5
:1021800017D53146284604F01BFE06EBC60004EBCB
:10219000800090F83F103C30012905D180F803A061
:1021A000F1B2204600F068F905EB46110220C1F8B3
:1021B00008095FEA086003D53146204602F0AEFC0C
:1021C0007F08761C002F95D1206804F052FE00286D
:1021D00011DAD5F8040820F00101C5F8041894F8C4
:1021E000F40401282BD0204600F018FA2068416939
:1021F00001F000414161206804F03BFE00050BD571
:10220000D5F80808C00702D0204600F04BFA206835
:10221000416901F400614161206804F02AFEC004B4
:1022200066D5D5F8040820F00100C5F8040810218F
:10223000206804F0C5FD00214FF67F321FE084F8CE
:10224000F4A400212046FFF70BFDCFE705EB41107A
:10225000C0F80829D0F8003923F40013C0F8003979
:10226000C0F8082BD0F8003B23F40013C0F8003B63
:10227000D0F8003B43F00063C0F8003B491C6068A5
:102280008842E3D8D5F81C0840F00111C5F81C18A5
:10229000206B002828460DD0D0F8840840F00B01B0
:1022A000C5F88418D5F8440840F00B012846C5F855
:1022B00044180DE0D0F8140842F22B010843C5F889
:1022C0001408D5F8100840F00B012846C5F810187E
:1022D000D0F8000820F4FE61C5F80018217C2068C1
:1022E000009A04F083FB2068416901F48051416148
:1022F000206804F0BEFD800415D5206804F03EF986
:10230000206804F07DFDE06000F09EFA0146227B2B
:10231000206804F011FE204600F06AF92068416947
:1023200001F400514161206804F0A3FD000707D5C6
:10233000204600F077F92068416901F00801416109
:10234000206804F096FD000616D5A86920F08000EC
:10235000A86101260DE000BF06EBC60004EB80007B
:1023600090F87F02012803D1F1B22046FFF7BAFCB2
:10237000761C6068B042EFD8206804F07AFDC00295
:1023800021D501264F4616E005EB4610D0F800197E
:1023900006EBC60004EB800090F84020012A09D12A
:1023A000002907DA80F83F70F0B240F08001204643
:1023B000FFF798FC761C6068B042E5D82068416958
:1023C00001F480114161206804F053FD800234D58E
:1023D00001204B4629E000BF05EB4011D1F8001B5E
:1023E00000EBC00204EB820696F88022012A1BD182
:1023F000002919DA94F8FC2401F4803102F001027A
:10240000914211D186F87F32A96941F08002AA6118
:102410006969090608D4D5F8040840F40070C5F8C5
:10242000040805E00A30544F401C61688142D3D84B
:102430002068416901F400114161206804F019FD30
:10244000400007D52046FFF732FC2068416901F0C3
:1024500080414161206804F00CFD40070AD52068E6
:102460004568680702D52046FFF738FC20684168B8
:1024700029434160BDE8FC9FD0F8080503F03CBD4E
:10248000D0F8080503F04CBD2DE9F0418AB00400F6
:1024900005D094F8BD042668002520B108E001208D
:1024A0000AB0BDE8F08184F8BC54204600F05EF824
:1024B000032084F8BD04F06BC00500D425612068BA
:1024C00004F000FA04F11001282288466846FEF75D
:1024D00009F894E80F0004F05FF80226C8BB002159
:1024E000206804F0E9FC002001270EE000EBC001A9
:1024F00004EB810181F83D7001F83C0F08810D71FA
:10250000CD600D61401CC0B28D6161688142EDD823
:10251000002011E000EBC00104EB810181F87D5245
:1025200081F87C0281F88052C1F88852C1F88C523F
:10253000401CC0B2C1F8945261688142EAD8282296
:1025400041466846FDF7CEFF94E80F0004F000F91D
:1025500010B184F8BD64A2E784F8385084F8BD74E3
:10256000206804F0E7F800209AE7000010B586B074
:10257000044614216846FDF7E7FF2068B0F1A04F3C
:102580002FD119480021026842F001020260006860
:1025900000F0010005904FF4C05000900220CDE9FA
:1025A0000101032003900A20049069460F48FFF7B9
:1025B0007DF90D48001D016841F0800101600A4865
:1025C0001430016841F4804101600068002200F489
:1025D0008040059005214320FFF710FB4320FFF7C3
:1025E000FFFA06B010BD0000303802400000024083
:1025F00070B50446C068012570B1022801D0FEF70D
:10260000F8FA2946D4F8080503F0F8FCD4F80805D0
:10261000BDE8704003F0ADBC0025F2E7D0F8080536
:1026200003F0D5BCD0F8080503F0DBBC10B50446B8
:1026300090F8BC0401280BD0012084F8BC0484F875
:102640003810206804F066FC002084F8BC0410BD3B
:10265000022010BDD0F8082500F2C441104603F056
:10266000D9BC10B50446006894F8BC14012906D002
:10267000012184F8BC14A16A012902D008E00220DB
:1026800010BDA169012903D0816B41F480318163C0
:10269000206804F070FB206804F03EF8002084F805
:1026A000BC0410BD10B50446D0F8080503F0F4FCD6
:1026B0002068D0F8001E41F00101C0F8001E206A19
:1026C000002804D00248016841F00601016010BDF5
:1026D00010ED00E02DE9F0470E46050065D0DFF86B
:1026E0001481D8F80000F7B200F00700B04207D21A
:1026F00088F80070D8F8000000F00700B04254D10C
:1027000028683D4C810712D5400703D5206840F466
:10271000E05020602878000703D5206840F460402E
:1027200020602068A96820F0F00008432060287825
:10273000C0072DD0304968680839012812D0022816
:1027400013D0032811D00968890700292DDA2168E0
:1027500021F0030101432160FFF7B2F9814641F204
:10276000883A0EE009688903EFE709688901ECE718
:10277000FFF7A6F9A0EB0901514502D90320BDE8F6
:10278000F0872068696800F00C00B0EB810FEFD192
:10279000D8F80010404601F00701B14207D9077090
:1027A000006800F00700B04201D00120E7E7287878
:1027B000400705D52068E96820F4E0500843206010
:1027C0002878000706D52068296920F4604040EA8F
:1027D000C100206000F05EF82168084AC1F30311CF
:1027E000515CC8400649086006480068FFF790F948
:1027F0000020C4E7003C024008380240149D000855
:10280000A0000020980000200F2202600C4A1368EC
:1028100003F003034360136803F0F003836013685D
:1028200003F4E053C36012684FF4E05303EAD202AA
:1028300002610448006800F007000860704700006B
:1028400008380240003C0240014800687047000020
:10285000A00000200448054900680968044AC1F343
:102860008221515CC8407047A00000200838024017
:10287000249D00080448054900680968044AC1F31A
:102880004231515CC8407047A00000200838024027
:10289000249D0008154810B5006810F00C0214487B
:1028A00013D04110042A0FD0082A0ED10F4C241F38
:1028B0002268236802F03F025B0207D52068C0F35C
:1028C0008810A0FB010106E0084610BD2168C1F395
:1028D0008811A1FB00010023FDF748FD2168C1F329
:1028E0000141491C4900B0FBF1F010BD083802401D
:1028F0000024F4002DE9F84F04006ED02078DFF8B2
:102900004C93C007A9F104054AD009F104000168FD
:10291000C1F38101012908D00068C0F381000228B9
:102920000AD1D9F80000400206D52868800337D5BF
:1029300060680028E1D033E06068B0F5803F10D0D7
:10294000B0F5A02F286810D020F4803028602868C7
:1029500020F4802028606068A8B1FFF7B1F806462F
:102960000DE0286840F48030F4E740F480202860CF
:10297000F7E700BFFFF7A4F8801B642873D8286826
:102980008003F7D50CE0FFF79BF8064605E000BF93
:10299000FFF796F8801B6428F0D828688003F7D4E6
:1029A0002078DFF8AC8280074FF0000A3ED5A748B8
:1029B000001D016811F00C0F08D00068C0F3810001
:1029C00002280BD1D9F80000400207D428688007FC
:1029D00016D5E068012800D112E033E1E068B8B113
:1029E0000120C8F80000FFF76BF8064605E000BFBD
:1029F000FFF766F8801B0228C0D828688007F7D543
:102A00002868216920F0F80040EAC10028600DE044
:102A1000C8F800A0FFF754F8064604E0FFF750F8A6
:102A2000801B02281FD828688007F7D42078000769
:102A300022D5864F87486169703771B101210160E5
:102A4000FFF73EF8064604E0FFF73AF8801B02283D
:102A500009D838688007F7D50EE0C0F800A0FFF766
:102A60002FF8064605E082E0FFF72AF8801B0228CF
:102A70007DD838688007F7D42078400768D5DFF81C
:102A8000CCB100270BF13C0BDBF80000C0000BD4ED
:102A9000DBF8001041F08051CBF80010DBF80000AB
:102AA000012700F0805000906B4E3068C00510D4B4
:102AB000306840F480703060FFF702F8009005E065
:102AC000FEF7FEFF0099401A022850D83068C00572
:102AD000F6D55E4EA0686C3601280FD00528306808
:102AE00010D020F001003060306820F00400306029
:102AF000A068B8B1FEF7E4FF00900FE0306840F046
:102B00000100F4E740F004003060F7E7FEF7D8FF7B
:102B10000099411A41F28830814266D830688007B6
:102B2000F4D50EE0FEF7CCFF009007E0FEF7C8FFFB
:102B30000099411A41F28830814256D830688007A6
:102B4000F4D42FB1DBF8001021F08051CBF8001045
:102B5000A069C8B33D49091D0968C1F38101022973
:102B60004AD00228504607D0C8F8600000E03CE098
:102B7000FEF7A6FF04463BE04746C8F86000FEF7B4
:102B80009FFF064605E000BFFEF79AFF801B022864
:102B90002BD828688001F7D4D4E907010843A16A3B
:102BA0002E4A490802EB0141626A41EA8211084358
:102BB00094F82C1040EA0161C9F800100120386631
:102BC000FEF77EFF044606E03EE000BFFEF778FF1A
:102BD000001B022809D828688001F7D534E000BF1F
:102BE000FEF76EFF001B022802D90320BDE8F88F14
:102BF00028688001F4D427E00128F7D0D9F8000034
:102C0000E26900F4800191421CD1226A00F03F0188
:102C1000914217D147F6C071626A0140B1EB821F41
:102C200010D1A26A4FF0FF3300F4403103EB52029F
:102C3000B1EB024F06D194F82C1000F07060B0EBAD
:102C4000016F01D00120D1E70020CFE70438024016
:102C500000004742800E4742007000400000FFFF26
:102C600070B5040009D0606A002540B12561656136
:102C7000A56294F8510040B10CE0012070BD60687D
:102C8000B0F5827FF4D0E561F2E784F85050204639
:102C900000F044F8022084F851002068016821F017
:102CA00040010160A088218900F4827001F4044190
:102CB0000843A18901F400610843217C01F002016D
:102CC0000843217D01F001010843218B01F40071CB
:102CD0000843217F01F03801084394F8201001F0E7
:102CE00080010843218D01F40051084321680860E8
:102CF000A069042101EA104094F8241001F01001A9
:102D00000843216848602068C16921F40061C161FD
:102D10006565012084F85100002070BD10B586B0B3
:102D2000044614216846FDF70FFC134920688842C9
:102D300020D112480021026842F4805202600068EB
:102D400000F4805005900D481438026842F00102EA
:102D50000260006800F001000590E0200090022071
:102D6000CDE9010103200390052004906946044841
:102D7000FEF79CFD06B010BD003001404438024013
:102D8000000002402DE9F84F044690F8500000275B
:102D90000A9E1D4692468B464FF0010901280ED02F
:102DA000012084F85000FEF78BFE804694F8510015
:102DB000616801280CD0B1F5827F07D102E00220C2
:102DC000BDE8F88FA16809B9042801D00227C2E044
:102DD000BBF1000F27D0BAF1000F24D01DB394F837
:102DE0005100042802D0052084F8510000206065BD
:102DF000C4F838A0E587A587C4F830B0E586A58675
:102E00002064606420680168490603D4016841F0C9
:102E100040010160E068B0F5006F606805D0E8B37C
:102E2000012D46D07FE0012795E008B1012D39D171
:102E3000206B21680088C860206B801C2063E08EB6
:102E4000401EE0862EE02068816889070FD5E18E5C
:102E500069B1B9F1010F0AD1216B0988C160206BFA
:102E6000801C2063E08E401EE0864FF00009206841
:102E70008168C9070CD0E18F51B1C068A16B08808F
:102E8000A06B801CA063E08F401EE0874FF001091B
:102E9000FEF716FEA0EB0800B04200E009E001D307
:102EA000701C50D1E08E0028CDD1E08F0028CAD10F
:102EB0003FE0206B216800780873206B401C206382
:102EC000E08E401EE0862EE02068816889070FD5DD
:102ED000E18E69B1B9F1010F0AD1216B0978017353
:102EE000206B401C2063E08E401EE0864FF00009FE
:102EF00020688168C9070CD0E18F51B1C068A16B0F
:102F00000870A06B401CA063E08F401EE0874FF06C
:102F10000109FEF7D5FDA0EB0800B04202D3701CFA
:102F200001D010E07EB1E08E0028CDD1E08F0028E6
:102F3000CAD142463146204601F042FE28B101275F
:102F40002020606507E0032705E0A06818B9206825
:102F5000C16880680090012084F85100002084F846
:102F6000500038462CE770477047000070B590F865
:102F70003C20012A32D0012480F83C40022280F813
:102F80003D2003685A689D6822F070060A68324343
:102F90005A60134B02689A4214D0B2F1804F11D09C
:102FA000104B9A420ED0104B9A420BD00F4B9A42C4
:102FB00008D00F4B9A4205D00E4B9A4202D00E4BCE
:102FC0009A4204D1496825F080031943916080F842
:102FD0003D40002180F83C10084670BD022070BDC5
:102FE000000001400004004000080040000C0040C8
:102FF00000040140004001400018004010B50400EA
:1030000003D094F83D0010B107E0012010BD00206E
:1030100084F83C00204600F01FF8022084F83D00B0
:10302000211D206801F0D4FE012084F8460084F8B8
:103030003E0084F83F0084F8400084F8410084F8A2
:10304000420084F8430084F8440084F8450084F882
:103050003D00002010BD000008B51C4A01681C4856
:10306000914207D1016841F004010160006800F05D
:10307000040009E0174A914208D1016841F00801B3
:103080000160006800F00800009008BD124A9142FB
:1030900011D1016841F0100101600068002200F0C8
:1030A0001000009009213620FEF7A8FDBDE8084079
:1030B0003620FEF795BD094A9142E6D1016841F0FC
:1030C00040010160006800F04000DDE700080040BA
:1030D00040380240000C0040001000400018004042
:1030E00090F83D10012901D001207047022180F89D
:1030F0003D100168CA6842F00102CA6000681149C7
:10310000884214D0B0F1804F11D00F4988420ED0C0
:103110000E4988420BD00E49884208D00D4988429A
:1031200005D00D49884202D00C49884204D18168FB
:1031300001F00701062903D0016841F00101016097
:1031400000207047000001400004004000080040DB
:10315000000C004000040140004001400018004005
:1031600070B5044690F83C000025012817D00126D0
:1031700084F83C60022084F83D002068826822F0D8
:10318000770222F47F4282600868502838D00DDC34
:1031900020284FD005DC90B3102811D14AE002203E
:1031A00070BD302846D040280AD13BE060282FD09F
:1031B00070280DD0B0F5805F03D0B0F5005F12D05D
:1031C000012584F83D60002084F83C00284670BD4D
:1031D000CB68D1E90121206801F06BFE206881688D
:1031E00041F0770109E0CB68D1E90121206801F0C5
:1031F00060FE2068816841F480418160E1E719E068
:10320000CA684968206801F029FF5021206806E05B
:10321000CA684968206801F032FF6021206801F027
:1032200052FECEE7CA684968206801F017FF4021C6
:103230002068F4E7226801461046F0E7704770B551
:103240000446006801694FF00005C943890715D499
:10325000C168C943890711D4E91E016101202077A3
:10326000206880698007204602D0FFF7E7FF04E06E
:1032700000F0ECF8204600F07EF92577206801691F
:10328000C943490717D4C168C943490713D46FF02C
:1032900004010161022020772068806910F4407FDA
:1032A000204602D0FFF7CAFF04E000F0CFF8204626
:1032B00000F061F9257720680169C943090716D430
:1032C000C168C943090712D46FF0080101610420E5
:1032D00020772068C0698007204602D0FFF7AEFF44
:1032E00004E000F0B3F8204600F045F925772068A7
:1032F0000169C943C90617D4C168C943C90613D4B3
:103300006FF010010161082020772068C06910F477
:10331000407F204602D0FFF791FF04E000F096F8CE
:10332000204600F028F9257720680169C943C907BC
:1033300008D1C168C943C90704D1891E016120466B
:1033400000F0BCF920680169C943090609D4C168C5
:10335000C943090605D46FF0800101612046FFF7DB
:1033600002FE20680169C943490609D4C168C943FE
:10337000490605D46FF040010161204600F0A8F92C
:1033800020680169C94389060BD4C168C94389060D
:1033900007D46FF0200101612046BDE87040FFF7BF
:1033A000E3BD70BD30B587B0044614216846FDF713
:1033B000CBF824681F4D00221F4902231F48AC424E
:1033C0000DD10C6844F002040C60096801F00201A0
:1033D000059140210091CDE90132694610E0184D78
:1033E000AC4213D1086840F00100086008686946E3
:1033F00000F00100059001200090CDE90132114854
:10340000CDE90323FEF752FA07B030BD0E4DAC42B2
:10341000FAD10C6844F002040C60096801F0020162
:10342000059129140091CDE901320921CDE903214B
:103430006946E7E7000800403038024000040240D7
:10344000000C00400000024000180040704770B5BA
:10345000044690F83C0000260D4601280FD00120BC
:1034600084F83C006AB1042A1DD0082A2FD00C2A07
:103470003FD00126002084F83C00304670BD022079
:1034800070BD206801F028FD2068816941F00801C5
:1034900081612068816921F004018161206881696E
:1034A0002A69114311E0206801F046FD2068816916
:1034B00041F4006181612068816921F4806181614A
:1034C000206881692A6941EA02218161D2E7206886
:1034D00001F068FD2068C16941F00801C161206800
:1034E000C16921F00401C1612068C1692A691143E1
:1034F00011E0206801F08AFD2068C16941F4006193
:10350000C1612068C16921F48061C1612068C1691D
:103510002A6941EA0221C161ACE710B5040003D079
:1035200094F83D0010B107E0012010BD002084F8A0
:103530003C00204600F01EF8022084F83D00211DCA
:10354000206801F045FC012084F8460084F83E0024
:1035500084F83F0084F8400084F8410084F8420079
:1035600084F8430084F8440084F8450084F83D0062
:10357000002010BD7047704710B50446022249B1C3
:1035800004290ED0082913D094F84100012816D040
:10359000012010BD94F83E000128F9D184F83E20A6
:1035A0000FE094F83F000128F2D184F83F2008E0B2
:1035B00094F840000128EBD184F8402001E084F821
:1035C00041200122206801F067FC16492068164A54
:1035D000884201D0904203D1436C43F400434364DA
:1035E0002068884213D0B0F1804F10D00F49884234
:1035F0000DD00F4988420AD00E49884207D0904228
:1036000005D00D49884202D00C49884204D1816816
:1036100001F00701062903D0016841F001010160B2
:10362000002010BD000001400004014000040040E3
:1036300000080040000C004000400140001800401D
:1036400030B504460D460068002201F025FC194BF8
:1036500041F2111120688A10984202D0164B98420C
:1036600009D1036A0B4206D1036A134203D1436CAA
:1036700023F4004343642068036A0B4206D1016AC5
:10368000114203D1016821F00101016001203DB127
:10369000042D08D0082D09D084F84100002030BD49
:1036A00084F83E00FAE784F83F00F7E784F840002A
:1036B000F4E70000000001400004014000680349F5
:1036C000884201D1FEF702BA704700000020004096
:1036D0007047704770470000F8B5016804460868F5
:1036E000CA684B6910F00F0F4FF0000559D003F076
:1036F000010602F49077374365D0C10705D0D105A4
:1037000003D5216C41F001012164410705D5D9079A
:1037100003D0216C41F002012164810705D5D9074E
:1037200003D0216C41F004012164010707D502F0A8
:103730002001314303D0216C41F008012164216C48
:1037400000293AD0800604D5900602D5204601F023
:103750008BFD20684069216CC0F38010090700D4FC
:1037600060B3204601F04BFD20684069400621D53A
:103770002068143050E8001F21F0400140E800129A
:10378000002AF5D1A06BA8B16C490165A06BFDF7CB
:10379000E9FE002811D0A06B016D01B0BDE8F0403A
:1037A000084783060FD593060DD52046BDE8F8409F
:1037B00001F05ABD2046FFF78DFFF8BD2046FFF708
:1037C00089FF2564F8BD266B2023012E79D1C6061A
:1037D00077D5D60675D508684868009048694006D0
:1037E00040D5A16B086840680004000CEAD0A28DA7
:1037F0008242E7D9E085C869B0F5807F2DD0206886
:103800000C3050E8001F21F4807140E80012002ABB
:10381000F5D12068143050E8001F21F0010140E884
:103820000012002AF5D12068143050E8001F21F062
:10383000400140E80012002AF5D184F83E302563AB
:1038400020680C3050E8001F21F0100140E8001201
:10385000002AF5D1A06BFDF73CFEA08DE18D401A4A
:1038600081B229E0A08DE18D401A81B2E08D00285F
:10387000A8D00029A6D020680C3050E8002F22F4F0
:10388000907240E80026002EF5D12068143050E8F0
:10389000002F22F0010240E80026002EF5D184F826
:1038A0003E30256320680C3050E8002F22F01002D3
:1038B00040E80023002BF5D12046FFF70AFFF8BDB2
:1038C000FFE705062BD5150629D594F83D002128DC
:1038D000F5D1A068B0F5805F01D12069B0B1206A50
:1038E000411C2162216800784860E08C401E000481
:1038F000000CE084E3D12068C16821F08001C16040
:103900002068C16841F04001C160D8E7206A0088A2
:10391000C0F308004860206A801C2062E5E740068A
:10392000CDD55006CBD5CA68204622F04002CA60E9
:1039300084F83D3000F06EFBC1E70000BD50000888
:1039400070B5040004D094F83D00002510B106E0E5
:10395000012070BD84F83C50204600F023F824205C
:1039600084F83D002068C16821F40051C160204600
:1039700001F0DAFC2068016921F4904101612068BE
:10398000416921F02A0141612068C16841F4005178
:10399000C1602564202084F83D0084F83E000020AA
:1039A00070BD00002DE9F04F87B005461421684630
:1039B000FCF7CAFDF448DFF8CC831038D5F800C016
:1039C000F14B02210322DFF8C4E34027002406154F
:1039D0004FF0080B4FF00069C44561D1D3F800C027
:1039E0004CF4002CC3F800C01B6803F400230593BB
:1039F000036843F001030360036803F001030593C8
:103A0000036843F0040303600068009100F00400C1
:103A10008846059001AE4046924686E8110C6946FC
:103A20007046FDF743FF3801CDE9000802AE694654
:103A300086E8100CD648FDF739FFD74ED548B76059
:103A4000C6E900090015C6E903407461B461F46178
:103A5000346230467462FDF767FE08B1FDF7C9F8BD
:103A60006E63B563CC4ECB48603630383060C6E903
:103A700001940015C6E903407461B461F4613462D5
:103A800030467462FDF750FE08B1FDF7B2F8AE6340
:103A9000002206213420B563FEF7B0F8342072E02E
:103AA000DFF8F882C44574D1D3F800C04CF4801C10
:103AB000C3F800C01B6803F480130593036843F048
:103AC00004030360036803F004030593036843F0F1
:103AD000080303600068884600F0080005904FF472
:103AE0008050CDE900080DF1080C92468CE8100CCE
:103AF0006946A748FDF7DAFE0420CDE900080DF17C
:103B00000808694688E8100CA548FDF7CFFEDFF8E5
:103B10008882A04908F1C0084046C8F80870C0E98A
:103B20000346C8F81440C8F81840C8F81C4048318B
:103B3000C8F82040C8E90019C8F82440FDF7F4FD92
:103B400008B1FDF756F89348964FC5F834806038B1
:103B5000C8F838503860C7E90194C7E903468015B2
:103B60007C61C7E906403C6238467C62FDF7DCFDBB
:103B700008B1FDF73EF8AF63002205213520BD6393
:103B8000FEF73CF83520FEF72BF807B0BDE8F08FC4
:103B9000FFE7DFF814824FF0070AC4455AD17A4B89
:103BA0001B1DD3F800C04CF0100CC3F800C01B68FC
:103BB00003F010030593036843F0010303600068FA
:103BC00000F0010005904FF4C0608DE81300CDE9CE
:103BD000032A69467046FDF769FEDFF8C88173491C
:103BE00008F160084046C8F80870C0E90346C8F804
:103BF0001440C8F81840C8F81C40C8F82040C8E96C
:103C00000019C8F82440FDF78FFD08B1FCF7F1FF5B
:103C1000644F6648C5F83480C0377838C8F83850E3
:103C20003860C7E90194C7E9034680157C61C7E99C
:103C300006403C6238467C62FDF776FD08B1FCF731
:103C4000D8FFAF63002208212520BD63FDF7D6FF12
:103C5000252098E7DFF85881C44515D11D6845F443
:103C600000351D601B6803F400330593036843F0BF
:103C700001030360006800F0010005900C208DE84E
:103C800013006946704619E0DFF82881C4451AD14F
:103C90001D6845F480251D601B6803F4802305938F
:103CA000036843F002030360006800F0020005901F
:103CB0004FF440608DE813003F486946CDE9032A80
:103CC000FDF7F4FD61E73D4B9C45FBD12E4B1B1DE1
:103CD000D3F800C04CF0200CC3F800C01B6803F000
:103CE00020030593036843F004030360006800F0B9
:103CF00004000590C0208DE81300CDE9032B694630
:103D00002348FDF7D3FDDFF8B88028494046C8F8BE
:103D10000870C0E90346C8F81440C8F81840C8F84D
:103D20001C4018394FF02069C8F82040C8E9001934
:103D3000C8F82440FDF7F8FC08B1FCF75AFF204F03
:103D40001A48C5F8348060379038C8F83850386061
:103D5000C7E90194C7E9034680157C61C7E90640BD
:103D60003C6238467C62FDF7DFFC08B1FCF741FF9E
:103D7000AF63002207214720BD63FDF73FFF4720C7
:103D800001E70000004C00404038024000000240C3
:103D90000008024070600240880800200050004087
:103DA000000C0240A809002000100140B864024045
:103DB000004400400048004000040240001401405C
:103DC000C80A002090F83E30202B0ED159B152B1D4
:103DD00090F83C30012B08D0012380F83C300023C0
:103DE000036301F027BB01207047022070470000E9
:103DF0002DE9F04104462DED028B554900689FEDF9
:103E0000558ADFED558A8D1588424AD15348544A68
:103E100083789370C679D671818949BA09B2918144
:103E2000C78B90F820C07FBA3F0490F8210047EA82
:103E30000C270743C81701EB1060001200EE100AB0
:103E4000C2F8227082F85230B8EEC00A9665012B93
:103E500010EE100A00EE107AD065B8EEC00A20EE1F
:103E6000080A20EE280ABDEEC00AB8EEC00A10EE1D
:103E7000101A516602D0022B03D008E0384A88326B
:103E800000E0384A82F852309665D06551660122CA
:103E900029463548FDF70FFE4E2230493348FFF7DB
:103EA00091FF3349206888424ED1324A2D488830EC
:103EB00012F8021F81705479C47153895BBA1BB226
:103EC0008381968B977F76BA3604D27F46EA07269F
:103ED0001643DA1703EB1262121200EE102AC0F832
:103EE000226080F85210B8EEC00A8465012910EEF5
:103EF000102A00EE106AC265B8EEC00A20EE080A69
:103F000020EE280ABDEEC00AB8EEC00A10EE103A44
:103F1000436602D0022902D008E0174801E01648A3
:103F2000883080F852108465C265436601222946B4
:103F30001248FDF7C0FDBDEC028B4E22BDE8F041FA
:103F40000C490F48FFF73EBFBDEC028BBDE8F08186
:103F50000010014000008038F90FC940D82F002020
:103F600000310020103200200000024078070020BD
:103F700000140140263000202033002000080240B9
:103F8000440800207047000070B5044690F83D00DA
:103F9000202836D191B38AB394F83C00012830D060
:103FA000012084F83C002162A284E284002525647B
:103FB000212084F83D00636B1348D863636B13487A
:103FC0001864636B1248D864606B134605652668F5
:103FD000606B321DFDF712FC21686FF04000086035
:103FE00084F83C502068143050E8001F41F08001F4
:103FF00040E80012002AF5D1002070BDFFE7012043
:10400000FBE70220F9E70000B3510008F551000872
:10401000CD50000870B504460A4900688D158842E5
:1040200004D1002229460848FDF745FD07492068CC
:10403000884206D12946BDE8704000220448FDF7B9
:104040003ABD70BD00100140000002400014014064
:10405000000802407047FEE7F0B500230A2430252F
:1040600037261F4611E000BFB4EB107F02D905EBE5
:10407000107C01E006EB107C01F813C001EB430C4F
:1040800000015B1C8CF80170DBB29342ECD3F0BDF5
:104090007FB50024154800940194029412490394BA
:1040A00001604FF48031C0E901140461047680F8A6
:1040B00020400F49C0E90A140125C561C46080F899
:1040C00030404561FCF73EFE08B1FCF792FD04204C
:1040D000CDE90005694602940448FCF78DFD0028EF
:1040E00001D0FCF786FD7FBD00200140E0040020E8
:1040F0000100000F104810B50E4901600221416017
:1041000000214FF460228160C0E903124FF4800265
:1041100042610176012242768276C176017741774B
:10412000FDF775F8002803D0BDE81040FCF761BD2D
:1041300010BD00000064004028050020104810B5A4
:104140000E4901600221416000214FF4602281602C
:10415000C0E903124FF480024261017601224276E7
:104160008176C27601774177FDF751F8002803D0B8
:10417000BDE81040FCF73DBD10BD000000680040E8
:1041800050050020294808B5016841F4001101607C
:10419000016801F400110091016841F4800101609F
:1041A0000068002200F48000009005210B20FDF73C
:1041B00025FD0B20FDF714FD002205210D20FDF744
:1041C0001DFD0D20FDF70CFD002205210F20FDF740
:1041D00015FD0F20FDF704FD002205212F20FDF71E
:1041E0000DFD2F20FDF7FCFC002205213920FDF7F5
:1041F00005FD3920FDF7F4FC002205213A20FDF7EA
:10420000FDFC3A20FDF7ECFC002205214520FDF7DE
:10421000F5FC4520FDF7E4FC002205214620FDF7D2
:10422000EDFCBDE808404620FDF7DABC303802401E
:1042300010B5A4B01C221C496846FCF753F90021B4
:10424000684604F094F8194C17491C2220611C316F
:1042500007A8FCF747F9002107A804F088F81249DD
:1042600060611C2238310EA8FCF73CF900210EA831
:1042700004F07DF80C49A0611C22543115A8FCF70C
:1042800031F9002115A804F072F80749E0611C22F9
:1042900070311CA8FCF726F900211CA804F067F86F
:1042A000206224B010BD0000809C000800000020A7
:1042B0002DE9F04786B014216846FCF745F94748D8
:1042C0000024016841F004010160016801F004016B
:1042D0000591016841F080010160016801F08001F1
:1042E0000591016841F001010160016801F00101DF
:1042F0000591016841F002010160016801F00201CD
:104300000591016841F0080101600068DFF8D09074
:1043100000F008004EF23815059000222946484664
:10432000FDF7C9FBDFF8BC804FF4807700223946E7
:104330004046FDF7C0FBDFF8B0A0002280215046C8
:10434000FDF7B9FB00950125CDE9015469464846C2
:104350000394FDF7ABFA042002268DE8510069466C
:104360004846FDF7A3FA0097CDE901546946404657
:104370000394FDF79BFAE8038DE831006946404657
:10438000FDF794FAE80200904FF44410CDE90105DE
:1043900069464846FDF78AFA18208DE831006946DB
:1043A0005046FDF783FA20208DE8510069465046BB
:1043B000FDF77CFA80200090CDE901546946504613
:1043C0000394FDF773FA002207212820FDF716FC5D
:1043D0002820FDF705FC06B0BDE8F0873038024024
:1043E000000802400000024000040240104810B5DE
:1043F0000E4901604FF48271416000218160C1600B
:104400004FF400720161C0E905121822C0E90721CA
:10441000416281620A21C162FEF722FC002803D0BA
:10442000BDE81040FCF7E5BB10BD000000300140C6
:104430007805002010B58CB00024079408940994E6
:104440001C2168460A94FCF77FF81A481849016055
:1044500044F29F11C0E901140921C0E903148461E9
:10446000FEF7CCFD08B1FCF7C4FB4FF48050079079
:1044700007A91048FEF774FE08B1FCF7BAFB0D4817
:10448000FFF74BF808B1FCF7B4FB60200090052063
:10449000CDE901040022694606480494FEF7D7FFDF
:1044A00008B1FCF7A6FB0348FEF77CFF0CB010BD7B
:1044B00000180040A806002010B58EB00024079414
:1044C000089409940A940B941C2168460C94FCF7F8
:1044D0003BF81E481C49C0E900144FF6FF71C0E9C3
:1044E000024104618461FEF789FD08B1FCF781FB9C
:1044F0004FF48050079007A91448FEF731FE08B129
:10450000FCF777FB1148FFF708F808B1FCF771FBDF
:104510000B940BA90D480C94FEF728FD08B1FCF78D
:1045200068FB6020CDE90004029400226946074838
:104530000494FEF78CFF08B1FCF75BFB0348FEF721
:1045400031FF0EB010BD000000080040D005002073
:1045500010B58EB000240794089409940A940B9423
:104560001C2168460C94FBF7EFFF1D481B49C0E96E
:104570000014611EC0E9024104618461FEF73EFD42
:1045800008B1FCF736FB4FF48050079007A9144898
:10459000FEF7E6FD08B1FCF72CFB1148FEF7BDFF66
:1045A00008B1FCF726FB0B940BA90D480C94FEF701
:1045B000DDFC08B1FCF71DFB6020CDE9000402948E
:1045C0000022694606480494FEF741FF08B1FCF753
:1045D00010FB0348FEF7E6FE0EB010BD000C0040D5
:1045E000180600201CB500240E4800940C490194C4
:1045F0000160A721C0E9011440F2E7318461C16084
:10460000FEF7FCFC08B1FCF7F4FA00946946054893
:104610000194FEF7ABFC002801D0FCF7EAFA1CBDC0
:1046200000100040600600200C4810B50A490160E7
:104630004FF4E1314160002181600C22C160C0E98A
:1046400004128161C161FFF77BF9002803D0BDE846
:104650001040FCF7CEBA10BD004C0040F006002020
:104660000C4810B50A4901604FF4E1314160002166
:1046700081600C22C160C0E904128161C161FFF751
:104680005FF9002803D0BDE81040FCF7B2BA10BDB6
:1046900000500040340700200C4810B50A49016062
:1046A0000B494160002181600C22C160C0E9041205
:1046B0008161C161FFF744F9002803D0BDE81040D3
:1046C000FCF797BA10BD00000010014078070020E9
:1046D000003E49000C4810B50A4901604FF4E13131
:1046E0004160002181600C22C160C0E90412816137
:1046F000C161FFF725F9002803D0BDE81040FCF7A1
:1047000078BA10BD00440040BC0700200C4810B52A
:104710000A4901604FF416514160002181600C226A
:10472000C160C0E904128161C161FFF709F9002885
:1047300003D0BDE81040FCF75CBA10BD0048004053
:10474000000800200C4810B50A4901600B4941607F
:10475000002181600C22C160C0E904128161C16145
:10476000FFF7EEF8002803D0BDE81040FCF741BA8F
:1047700010BD00000014014044080020003E490024
:1047800010B500220F49104801F099FA08B1FCF762
:1047900030FA0E490C4801F0A7FC08B1FCF729FAE1
:1047A0000B49094801F064F808B1FCF722FA064801
:1047B00001F01EFD002803D0BDE81040FCF719BA37
:1047C00010BD000028000020D00B0020FC000020BD
:1047D00080000020F5EEC01AB0EE414AF0EE603ADB
:1047E000B0EE403AF1EE10FA10B5034609D1B5EE3D
:1047F000C02AF1EE10FA04D1F5EEC02AF1EE10FA5B
:1048000074D021EEA10A02EE020A02EEA20A03F01F
:104810003DFD874A61EE804A22EE001A62EE802A50
:1048200092ED030AD2ED050A92ED025A20EE202AFB
:1048300092ED020AD2ED040A00EE602A92ED020A1D
:10484000D2ED030A60EE201A92ED040AD2ED050AB9
:1048500040EE201AD2ED020AB6EE000A10EE850AEA
:10486000D2ED050A92ED055A00EE850A61EE000AC6
:1048700042EEE10A62EE822A44EEC02A24EEA10A48
:1048800001EE420A92ED011AB5EEC01AF1EE10FAED
:104890002DDD92ED011AD2ED061A21EE202A9FEDB0
:1048A000651A42EE011AC2ED061AD2ED011A21EE86
:1048B000A22AD2ED071A42EE011AC2ED071AD2ED72
:1048C000011A21EE802AD2ED081A42EE011AC2ED39
:1048D000081A92ED061A33EE013A92ED071A73EEBA
:1048E000813A92ED081A34EE014A08E09EE09FED0D
:1048F000521A82ED061A82ED071A82ED081A92ED1D
:10490000001A01EE203AD2ED000A40EEA23AD2EDB2
:10491000000A00EE804A9FED491A92ED042AD2ED7A
:10492000021A23EE010A92ED033A63EE810A24EEA5
:10493000011A63EE402AD2ED053A42EE602A43EEB8
:10494000C12AD2ED023A72EEA32AC2ED022A61EE2A
:10495000802AD2ED053A42EE012A43EEE02AD2ED5A
:10496000033A72EEA32AC2ED032A61EEA02AD2ED29
:10497000053A43EE412A21EE811A03EE201A43EE56
:10498000802AD2ED043A02EE401A72EEA32AC2ED5A
:10499000042A92ED050A31EE000A82ED050A92ED35
:1049A000020AD2ED020A92ED031A20EE200AD2ED9D
:1049B000030A00EE810AD2ED040A92ED041A00EE19
:1049C000810AD2ED050A92ED051A00EE810A03F084
:1049D0005DFCD2ED020A184660EE800AC2ED020AC2
:1049E000D2ED030A60EE800AC2ED030AD2ED040A9A
:1049F00060EE800AC2ED040AD2ED050A20EE800ABC
:104A000082ED050A92ED020A83ED050A92ED030A92
:104A100083ED060A92ED040A83ED070A92ED050A7A
:104A200083ED080ABDE8104003F0F2BA10BD0000A3
:104A3000940100206F12033B000000006F12833AC4
:104A4000FEE7FEE70148FDF767BA0000CC2A002028
:104A50002DE9F04103680D4604461E6C03EB451139
:104A6000D1F8080BD4F810E04FF400474FF0200CB9
:104A700004F2C442BEF1010F09D0DFF898E0764598
:104A800039D1020432D500BFC1F8087B3FE0224B88
:104A90005FEA007E04D59E4239D90004F4D436E0A2
:104AA0005FEA806E02D5C1F808CB30E010F0280F25
:104AB0002DD19E4201D90004E6D405EBC50004EBDC
:104AC0008000D1F8101BD0F89832C1F31201591AA6
:104AD000C0F89C1200F51F70ADB983691BB1026963
:104AE000114401610FE0012120680AE080060AD527
:104AF000C1F808CB07E035B9D4F8940218B9002101
:104B0000184601F073FFE9B22046FDF7DDF80020FA
:104B1000BDE8F0810A31544F0A30544F2DE9F84F67
:104B20000E4601EBC60100EB810481460568616D0C
:104B3000E06D3C34884202D90120BDE8F88F081AA4
:104B4000E168814200D20846C01C870805EB461880
:104B50001BE000BFA0EB010AE068504500D282468E
:104B60000AF10300870899F8100000901FFA8AF3F1
:104B7000F2B22846216902F053FA216901EB0A00DA
:104B80002061216A01EB0A002062D8F8180980B27E
:104B9000B84205D3216AA069814201D20028D9D147
:104BA000216AA069884208D806F00F0101208840D8
:104BB000D5F834188143C5F834180020BDE700004B
:104BC00038B504461248134B0068B0FBF3F04FF4BD
:104BD0007A73584300906068B0F5827F0DD10B4620
:104BE000009200228021204600F016F870B1606D1E
:104BF00040F020006065032038BD009830B1401EB1
:104C0000009020688068C0430006F6D5002038BDBB
:104C1000A000002000366E012DE9F8431E469146A3
:104C200088460446089DFCF74BFF401B351AFCF7ED
:104C300047FF074625480068C0F3CB30684338E09B
:104C4000701C37D0FCF73CFFC01BA84203D215B143
:104C5000009860B32CE02068416821F0E0014160D9
:104C60006068B0F5827F0BD1A068B0F5004F02D02C
:104C7000B0F5806F04D12068016821F04001016027
:104C8000A06AB0F5005F09D12068016821F40051E5
:104C900001602068016841F400510160012084F83E
:104CA0005100002084F850000320BDE8F88300255F
:104CB000401E00902068816838EA010004D000217D
:104CC0004945BDD10020F0E70121F9E7A00000200F
:104CD0000178407841EA00207047FFF751FD01203C
:104CE00003F039FBFBE7000010B5502080F311887A
:104CF000BFF34F8FBFF36F8F04F0F4F818B104497E
:104D00004FF080500860002080F3118810BD000033
:104D100004ED00E030B593B030216846FBF714FC99
:104D200014210CA8FBF710FC1D480025016841F078
:104D300080510160006800F08050119019480168AE
:104D400041F4804101600068022400F48040119029
:104D500001200090000401908001CDE9064004206C
:104D60000890A820CDE9090407200B906846FDF7BC
:104D7000C1FD08B172B6FEE70CA90F2081E8310031
:104D80004FF4A0500F904FF48050109005210CA8C4
:104D9000FDF7A0FC002801D072B6FEE713B030BDCD
:104DA00040380240007000400248016841F4700140
:104DB0000160704788ED00E00148FEF740BA00004E
:104DC000600600200148FEF73ABA0000880B002078
:104DD000F0B50268254C264D264E274F274B4FF045
:104DE000804CA04209D0604507D0A84205D0B0420F
:104DF00003D0B84201D0984204D122F0700E4A6824
:104E000042EA0E02A0421BD0604519D0A84217D03A
:104E1000B04215D0B84213D0984211D0184DA842D4
:104E20000ED0184DA8420BD0174DA84208D0174DF0
:104E3000A84205D0164DA84202D0164DA84203D173
:104E400022F44075CA682A434D6922F080022A4341
:104E500002608A68C2620A688262A04201D09842F7
:104E600001D10969016301214161F0BD00000140E8
:104E70000004004000080040000C00400004014015
:104E8000004001400044014000480140001800403B
:104E9000001C00400020004010B501F01F0301215C
:104EA000046A99408C430462016A9A40114301628A
:104EB00010BD10B5846842EA032224F47F440A43FB
:104EC0002243826010BD826822F070020A4342F0E1
:104ED0000701816070470000F0B5026A22F001020C
:104EE0000262036A42688469124E24F073050C68FA
:104EF0002C4323F002058B682B430D4DA84201D0B3
:104F0000B04205D123F00807CB683B4323F00403EC
:104F1000A84201D0B04205D14D6922F44072154338
:104F20008A692A4342608461496841630362F0BD33
:104F30000000014000040140F0B5026A22F01002B6
:104F40000262026A436884690D6824F4E64444EA14
:104F500005248D6822F0200242EA05120F4D104E02
:104F6000A84201D0B04206D1CF6822F0800242EAC6
:104F7000071222F04002A84201D0B04207D14D6989
:104F800023F4406343EA85038D6943EA8503436064
:104F90008461496881630262F0BD00000000014045
:104FA00000040140F0B5026A22F480720262026AD3
:104FB0004368C46922F4007224F073050C68124E31
:104FC0002C438D6842EA05220E4DA84201D0B04222
:104FD00006D1CF6822F4006242EA072222F48062FE
:104FE000A84201D0B04207D14D6923F4405343EAAF
:104FF00005138D6943EA05134360C4614968C163C1
:105000000262F0BD000001400004014030B5026AB8
:1050100022F480520262046A4268C3690D6823F474
:10502000E64343EA05238D6824F4005444EA05343A
:10503000084DA84202D0084DA84204D14D6922F47F
:10504000804242EA85124260C36149680164046299
:1050500030BD0000000001400004014010B5036AAB
:10506000046A24F001040462846924F0F00444EA30
:10507000021423F00A020A438461026210BD10B5D3
:10508000036A23F0100303628369046A23F4704304
:1050900043EA023224F0A00343EA01118261016273
:1050A00010BD00000148FEF717BB0000F00600200D
:1050B0000148FEF711BB00003407002010B5806BDB
:1050C0000021C185C184FEF705FB10BD70B5846B5E
:1050D0002068406994F83D10C0F3C01000252129D4
:1050E00004D118B1E584204600F0B0F8206840698A
:1050F00094F83E10C0F38010222904D118B1E58540
:10510000204600F07CF8206C40F01000206420461F
:10511000FEF7E0FA70BD10B50146806B09680968BA
:10512000C9052FD40021C18501680C3151E8002F39
:1051300022F4807241E80023002BF5D1016814317C
:1051400051E8002F22F0010241E80023002BF5D1A5
:105150000168143151E8002F22F0400241E8002399
:10516000002BF5D1202180F83E10016B012909D1D7
:1051700001680C3151E8002F22F0100241E80023B1
:10518000002BF5D1016B012902D0FEF731FE10BDD5
:10519000818DFEF79EFA10BD10B5806B016B012961
:1051A00002D0FEF7EFFE10BD818D4908FEF791FA9F
:1051B00010BD10B50146806B09680968C90516D491
:1051C0000021C1840168143151E8002F22F08002CF
:1051D00041E80023002BF5D101680C3151E8002F84
:1051E00042F0400241E80023002BF5D110BDFEF74C
:1051F00011FF10BD10B5806BFEF72CFF10BD0168CC
:105200000C3151E8002F22F4907241E80023002B6A
:10521000F5D10168143151E8002F22F0010241E874
:105220000023002BF5D1016B012909D101680C3154
:1052300051E8002F22F0100241E80023002BF5D1A5
:10524000202180F83E1000210163704701680C3175
:1052500051E8002F22F0C00241E80023002BF5D1D5
:10526000202180F83D10704708B590F83E102229A3
:1052700001D0022008BD82684FF480539A4201D1C8
:10528000016921B1816A9A421BD04AB10AE00268E1
:10529000816A5268C2F308020A80816A891C08E0A8
:1052A000026972B10268526802F07F020A70816A74
:1052B000491C8162C18D491E0904090CC18503D0B6
:1052C00019E002685268F1E70168CA6822F020021A
:1052D000CA600168CA6822F48072CA6001684A69BB
:1052E00022F001024A61202180F83E10016B012961
:1052F00003D0FEF77DFD002008BD00210163016899
:105300000C3151E8002F22F0100241E80023002B5D
:10531000F5D101680A68D20602D50A684968009189
:10532000818DFEF7D6F9E6E770B50446006801699D
:10533000E26821F44051114301612169A068E269EA
:1053400008436169114308432168CA6849F20C6344
:105350009A430243CA6020684169A26921F44071FE
:105360001143416131492068884202D03049884266
:1053700002D1FDF77FFA01E0FDF76CFAE269002344
:10538000192164253226B2F5004F626828D0A0FBAF
:105390000101930F9200FAF7E9FF0146B0FBF5F027
:1053A0006FF01802504301EB800006EB0010B0FBD9
:1053B000F5F000F0F002B1FBF5F002EB0012B1FBEA
:1053C000F5F06FF01803584301EB800006EB001076
:1053D000B0FBF5F000F00F0021681044886070BD4C
:1053E000A0FB010192185B41FAF7C0FF0146B0FB38
:1053F000F5F00201B1FBF5F06FF01803584301EB33
:10540000800006EBC000B0FBF5F000F0F80002EB06
:105410004002B1FBF5F0584301EB800006EBC00001
:10542000B0FBF5F000F00700D6E7000000100140E7
:105430000014014038B58162828500251346044678
:105440000564222084F83E00A26B1C48D063A26B46
:105450001B481064A26B1B48D064A06B0A4605650C
:105460002168A06B091DFCF7C9F920680168406834
:10547000009084F83C50206948B120680C3050E816
:10548000001F41F4807140E80012002AF5D1206825
:10549000143050E8001F41F0010140E80012002ADA
:1054A000F5D12068143050E8001F41F0400140E879
:1054B0000012002AF5D1002038BD00001751000865
:1054C00099510008CD5000080148FEF705B90000C9
:1054D000780700200148FEF7FFB8000044080020CC
:1054E0002DE9F0410C46D0F8D412D0F8C82200EBD8
:1054F0008101D1F8C01229B304F00F0606EB860330
:1055000000EB83050027AB694BB106EBC60602EB47
:105510008602926CB3FBF2F602FB1632A2B1C1F81E
:105520001472D0F8D42200EB8200D0F8C4020369D0
:105530002BB1D1F80802224601F5047198470020EA
:10554000BDE8F0810320FBE700231A462146AF6146
:1055500000F0ABFDF3E770B50546D0F8D40205EBDB
:105560008000D0F8C04294B1284600F080FCC4F816
:105570000C02D5F8D412D4F8040205EB8101D1F85D
:10558000C412CA6804F503719047002070BD03205F
:1055900070BD000070B5224D0446297800F0ABFBC9
:1055A0002878002600F00F0000EB800004EB80005C
:1055B00086846978204600F09EFB687800F00F0032
:1055C00000EB800004EB8000A0F86461A97820461D
:1055D00000F091FBA87800F00F0000EB800004EBD6
:1055E00080008684C684D4F8D40204EB8000D0F80E
:1055F000C01299B1D0F8C40240688047D4F8D402F0
:1056000004EB8000D0F8C00200F073FFD4F8D4029D
:1056100004EB8000C0F8C062C4F8BC62002070BD1A
:10562000A800002010B5D0F8D41200EB8100D0F80B
:10563000C04284B1D0F8C41259B194F80002FF28D6
:1056400007D08B6894F8012221469847FF2084F800
:105650000002002010BD032010BD00000A210180BF
:1056600000487047AC00002070B5064682210C4807
:1056700000F0D1FA05460121094800F0CCFA0446B1
:105680008121074800F0C7FA0DB11021A97140210E
:1056900004B1A18000B1818043203080004870BDFA
:1056A000B800002070B5064682210D4800F0B3FA1C
:1056B000054601210A4800F0AEFA04468121084857
:1056C00000F0A9FA0DB11021A9714FF4007104B1D5
:1056D000A18000B1818043203080014870BD00006E
:1056E000B800002070B5064682210C4800F093FAFD
:1056F00005460121094800F08EFA04468121074839
:1057000000F089FA0DB11021A971402104B1A180E6
:1057100000B1818043203080004870BDB800002077
:105720002DE9F04704464FF40775284600F0E2FEE5
:1057300006004FF0000863D02946FAF705FFD4F8B9
:10574000D4023C4D04EB80004FF01009C0F8C06259
:10575000C4F8BC62207C4FF4007A0127F0B34023E8
:1057600002222978204600F0EFFB2878402300F041
:105770000F0000EB800004EB800087840222697830
:10578000204600F0E1FB6878082300F00F0000EBF2
:10579000800004EB80000322A0F86471A978204601
:1057A00001F00F0101EB810104EB8101A1F82690CA
:1057B000A97800F0C9FBA87800F00F0000EB80008A
:1057C00004EB80008784C6F80482D4F8D4024746EC
:1057D00004EB8000D0F8C402006800E018E006F591
:1057E000017680473761776132687AB1207CF8B101
:1057F00040236978204600F0B3FB0020BDE8F08725
:10580000D4F8D41204EB8101C1F8C0820220F5E77C
:10581000534602222978204600F096FB287853460A
:1058200000F00F0000EB800004EB80008784A5E708
:105830005346DEE7A800002010B5D0F8D41200EBE4
:105840008101D1F8C01259B1027C084C002AD1F86C
:10585000042207D04023617800F082FB002010BDB5
:10586000032010BD4FF40073F5E70000A8000020EE
:1058700039B1D0F8D42200EB8200C0F8C412002065
:10588000704703207047D0F8D42200EB8200D0F894
:10589000C00218B1C0F804120020704703207047FE
:1058A000D0F8D43200EB8300D0F8C00228B1C0F8A1
:1058B0001022C0F8081200207047032070472DE91D
:1058C000FC410646D0F8D4020C4606EB80000021CD
:1058D000D0F8C0728DF80010ADF804100D4637B145
:1058E000217811F060022FD0202A4BD102E0032052
:1058F000BDE8FC81E288F2B109060DD5D0F8C402FA
:1059000063783946D0F808C01846E047E288072A8D
:1059100000D9072239462DE0607887F80002E08838
:10592000402800D34020C2B287F8012239463046D1
:1059300000F058F82BE0D0F8C402637800228668A3
:1059400021461846B04722E0607830B101281ED0C9
:105950000A2809D00B2815D110E096F89C020328DC
:1059600010D1022201A905E096F89C02032809D172
:1059700001226946304600F04FF808E096F89C0294
:10598000032804D02146304600F021F8032528469C
:10599000AEE710B5D0F8B82200245268904700B1A5
:1059A0000324204610BD0020704700207047134696
:1059B00010B50A46002100F0D3FA002010BD1346AE
:1059C00010B50A46002100F070FB002010BD10B594
:1059D0000446802100F04EFB2046BDE81040002127
:1059E00000F048BB10B50323C0F89432C0F858212A
:1059F0001346C0F85C210A46002100F0B1FA0020ED
:105A000010BD10B50521C0F8941200231A4619469E
:105A100000F0A6FA002010BD10B50223C0F89432A1
:105A200082611346C2610A46002100F03EFB00205D
:105A300010BD10B50421C0F8941200231A4619466F
:105A400000F033FB002010BD10B50A46024903A048
:105A500000F005F9004810BDAC0E0020434443207F
:105A6000436F6E6669670000122008800048704727
:105A70004800002010B50A46024903A000F0EFF8E4
:105A8000004810BDAC0E002043444320496E7465AD
:105A9000726661636500000004200880004870475A
:105AA0004400002010B50A46024903A000F0D7F8D0
:105AB000004810BDAC0E002053544D6963726F65F1
:105AC0006C656374726F6E696373000010B50A468B
:105AD000024903A000F0C3F8004810BDAC0E00203E
